:100000000C94AF050C94CC050C94CC050C94CC0549
:100010000C94CC050C94CC050C94CC050C94CC051C
:100020000C94CC050C94CC050C9468280C943C29B9
:100030000C94D9220C94CC050C94CC050C94CC05D2
:100040000C94CC050C94CC050C94CC050C94CC05EC
:100050000C94CC050C9460230C94CC050C94CC052A
:100060000C94CC050C94CC050C94CC050C94CC05CC
:100070000C94CC050C94CC050C94CC050C94CC05BC
:100080000C94CC050C94CC050C94CC050C94CC05AC
:100090000C94CC050C94CC050C94CC050C94CC059C
:1000A0000C94CC050C94CC050C94CC0529001E00B6
:1000B0001F00200021002200000023002400250052
:1000C000260027002D00310014001A00080015003A
:1000D000170000001C0018000C0012001300300074
:1000E0002B0004001600070009000A0000000B00A6
:1000F0000D000E000F0033003400E1001D001B0056
:100100000600190005004C001100100036003700F1
:1001100038002F00E000E300E200350021522A0001
:1001200028002C002E002D0034000152280000521F
:100130003A003B003C003D003E0000003F00400014
:10014000410042004300440001000100D100CD0005
:10015000D200D9000000450001005200010001005A
:10016000A90001000100CF00CE00D000DA0000009D
:100170000100500051004F000100AA00025201008E
:10018000DD00DE00DF0001000100010001000100D0
:1001900001000100A80001000100010001000100B0
:1001A0000100010001000100010001000100010047
:1001B00000520000000000000000000000000000ED
:1001C000000000000000000000000000000000002F
:1001D000000000000000000000000000000000001F
:1001E000000000000000000000000000000000000F
:1001F00000000000000000000000000000000000FF
:1002000000000000000000000000000000000000EE
:1002100000000000000000000000000000000000DE
:1002200000000000000000000000000000000000CE
:10023000007C44454255473A2064697361626C65AD
:10024000642E0A0044454255473A20656E61626C4F
:1002500065642E0A000A0025303258006C65645F20
:100260007461736B3A20004F6E6573686F743A2047
:100270006163746976653A2025640A000A002530B6
:10028000313662003A200025303258000A722F635E
:1002900020303132333435363738394142434445E2
:1002A000460A00290A002575002F002575005D28E3
:1002B0000025640020002564002000256400200043
:1002C0002564007C0025303258006D6F7573656BB6
:1002D0006579205B62746E7C782079207620685D79
:1002E000287265702F61636C293A205B00556E6936
:1002F000636F646520696E707574206D6F6465202E
:1003000073657420746F3A2025750A00556E696311
:100310006F646520696E707574206D6F6465206907
:100320006E697420746F3A2025750A000000000081
:10033000000000002A2B2800000000000000000040
:100340000000000000000029000000002C1E3420E6
:10035000212224342627252E362D3738271E1F200C
:100360002122232425263333362E37381F04050651
:100370000708090A0B0C0D0E0F1011121314151695
:100380001718191A1B1C1D2F3130232D3504050693
:100390000708090A0B0C0D0E0F1011121314151675
:1003A0001718191A1B1C1D2F3130354C0000000086
:1003B000000000000000000000000000000000003D
:1003C000000000000000000000000000000000002D
:1003D0007E0F00D4FFFFFFC700000078313A0964A8
:1003E000656C6179282A31306D73293A2025750AA8
:1003F000323A09696E74657276616C286D73293AB8
:100400002025750A333A096D61785F7370656564FC
:100410003A2025750A343A0974696D655F746F5F17
:100420006D61783A2025750A353A09776865656CFB
:100430005F6D61785F73706565643A2025750A3673
:100440003A09776865656C5F74696D655F746F5FA5
:100450006D61783A2025750A00703A097072696EEC
:10046000742076616C7565730A643A09736574204B
:1004700064656661756C74730A75703A092B310A8C
:10048000646E3A092D310A6C743A092B31300A72C4
:10049000743A092D31300A4553432F713A09717569
:1004A00069740A0A7370656564203D2064656C7424
:1004B00061202A206D61785F7370656564202A2051
:1004C00028726570656174202F2074696D655F7492
:1004D0006F5F6D6178290A77686572652064656C65
:1004E00074613A20637572736F723D25642C2077B6
:1004F0006865656C3D25640A536565206874747091
:100500003A2F2F656E2E77696B6970656469612E6D
:100510006F72672F77696B692F4D6F7573655F6BAE
:100520006579730A004D3E20004D25753A25733ECE
:1005300020003F0A003D2025750A003F0A0064653F
:100540006661756C74730A0025750A003F0A000A1B
:10055000092D2056616C756573202D0A00710A0003
:100560000A092D204D6F7573656B6579202D0A0082
:100570003F00433E20004C25640A000A092D205309
:100580007461747573202D0A686F73745F6B65797D
:10059000626F6172645F6C65647328293A2025304C
:1005A00032580A6B6579626F6172645F70726F7442
:1005B0006F636F6C3A20253032580A6B6579626F31
:1005C0006172645F69646C653A20253032580A7440
:1005D000696D65725F72656164333228293A20253E
:1005E00030386C580A002573000A092D20436F6EBD
:1005F000736F6C65202D0A4553432F713A0971754D
:1006000069740A6D3A096D6F7573656B65790A00D7
:100610000A092D204D61676963202D0A443A094477
:1006200065627567204D65737361676520546F67F8
:10063000676C650A583A094D61747269782044659F
:10064000627567204D6F646520546F67676C652025
:100650002D2053686F77206B6579707265737365B1
:100660007320696E206D61747269782067726964A5
:100670000A4B3A094B6579626F6172642044656286
:10068000756720546F67676C65202D2053686F77FE
:10069000206B65797072657373207265706F727408
:1006A0000A4D3A094465627567204D6F7573652080
:1006B000546F67676C650A563A0956657273696FBD
:1006C0006E0A533A095374617475730A433A0941C7
:1006D0006374697661746520436F6E736F6C652017
:1006E0004D6F64650A46312D4631303A09537769BA
:1006F00074636820746F204C6179657220302D39E5
:100700002028463130203D204C30290A302D393AFE
:100710000953776974636820746F204C617965723E
:1007200020302D390A47524156453A0953776974AA
:10073000636820746F204C617965722030202861D5
:100740006C7465726E617465290A423A094A756D66
:100750007020746F20426F6F746C6F616465720AF1
:100760004553433A094A756D7020746F20426F6F8C
:10077000746C6F616465722028616C7465726E615F
:100780007465290A453A095072696E7420454550CE
:10079000524F4D2053657474696E67730A4241432A
:1007A0004B53504143453A09436C656172204545BE
:1007B00050524F4D0A006B65796D61705F636F6ECB
:1007C0006669672E7261773A20253032580A2E7397
:1007D0007761705F636F6E74726F6C5F636170736B
:1007E0006C6F636B3A2025750A2E636170736C6FB2
:1007F000636B5F746F5F636F6E74726F6C3A20250A
:10080000750A2E737761705F6C63746C5F6C6775CB
:10081000693A2025750A2E737761705F7263746C74
:100820005F726775693A2025750A2E737761705F6C
:100830006C616C745F6C6775693A2025750A2E735C
:100840007761705F72616C745F726775693A2025B9
:10085000750A2E6E6F5F6775693A2025750A2E73CB
:100860007761705F67726176655F6573633A2025B3
:10087000750A2E737761705F6261636B736C61736D
:10088000685F6261636B73706163653A2025750A06
:100890002E6E6B726F3A2025750A2E737761705F2A
:1008A0006573636170655F636170736C6F636B3AEE
:1008B0002025750A0064656275675F636F6E6669FF
:1008C000672E7261773A20253032580A2E656E61A4
:1008D000626C653A2025750A2E6D61747269783AEA
:1008E0002025750A2E6B6579626F6172643A202546
:1008F000750A2E6D6F7573653A2025750A0065655A
:10090000636F6E6669673A0A64656661756C745FE9
:100910006C617965723A2025750A003F000A6D6F97
:100920007573653A206F66660A000A6D6F757365A8
:100930003A206F6E0A000A6B6579626F6172643AE1
:10094000206F66660A000A6B6579626F6172643AAD
:10095000206F6E0A000A6D61747269783A206F66C2
:10096000660A000A6D61747269783A206F6E0A0037
:100970000A64656275673A206F66660A000A6465F4
:100980006275673A206F6E0A000A0A4A756D7069CF
:100990006E6720746F20626F6F746C6F6164657234
:1009A0002E2E2E2000433E2000436C656172696E3E
:1009B0006720454550524F4D0A000A0025303258F5
:1009C00020006B6579626F6172645F7265706F722F
:1009D000743A20005B735D005B575D005B535D0004
:1009E0005B525D005B445D005B435D0012034100B0
:1009F000740072006500750073003600320000005C
:100A00000E03500072006F00660065007400000065
:100A10000403090409025B00030100A0FA090400B1
:100A2000000103010100092111010001224000071A
:100A30000581030800010904010001030000000909
:100A40002111010001227B0007058203200001091A
:100A5000040200020300000009211101000122220A
:100A6000000705830320000107050303200001128E
:100A700001000200000008EDFE62600100010200BA
:100A8000010631FF0974A1010975150026FF0095C3
:100A900020750881020976150026FF00952075084B
:100AA0009102C005010902A10185020901A1000509
:100AB000091901290815002501950875018102050C
:100AC00001093009311581257F95027508810609D4
:100AD000381581257F950175088106050C0A3802B5
:100AE0001581257F950175088106C0C00501098023
:100AF000A101850319012AB700150126B700950148
:100B000075108100C0050C0901A101850419012A95
:100B1000A002150126A002950175108100C00501F3
:100B20000906A101050719E029E715002501950827
:100B3000750181029501750881010507190029FFDA
:100B4000150026FF00950675088100050819012982
:100B500005950575019102950175039101C0112458
:100B60001FBECFEFDAE0DEBFCDBF12E0A0E0B1E004
:100B7000E8EEF7E502C005900D92A23CB107D9F767
:100B800023E0A2ECB2E001C01D92AF3AB207E1F758
:100B90000E9479170C94AB2B0C940000FF93EF93F9
:100BA000E091C202F091C302309709F00995EF91EC
:100BB000FF910895FC018591803011F0EFDFFBCFAC
:100BC0000895FF27E0E230E247FF0CC0419597FF10
:100BD00009C0EDE26095709580959095611D711D3D
:100BE000811D911D27FF02C0219530E350E2AA2705
:100BF000660F771F881F991FAA1FA41710F0A41B48
:100C000063955A95A9F7AA3008F0A95FA05DAF9344
:100C1000F395611571058105910541F7ED3211F4E8
:100C2000EF93F395F21718F43F93F395FBCF8F9161
:100C3000B5DFFA95E1F70895E991F9918591803052
:100C400021F0853219F0AADFF9CF089520E0E89469
:100C500055915532C1F3503311F4689455915A337C
:100C600048F4505390F3220F022E220F220F200D32
:100C7000250FF4CF0EF4219589919991533619F3EC
:100C8000533729F1533559F1BC0188279927E89446
:100C90005C3621F48991999168945591543639F4D0
:100CA00046EF7EF077FF0DC08FEF9FEF0AC05537FC
:100CB0004AE039F0583540E121F0523642E009F07F
:100CC0000895FF93EF937DDFEF91FF91B7CFFF93EF
:100CD000EF93FC0181918030B9F360DFFBCFFF938C
:100CE000EF9368DFF1CFDF93CF93CDB7DEB72596D3
:100CF000A3DFCF91DF9108958330B8F46530A8F475
:100D00004D3098F450E09DE0699F400D511D112435
:100D1000FA0191E4899FE00DF11D1124EE0FFF1FF0
:100D2000E455FF4F85919491089581E090E00895F6
:100D30000E947C0608959C013A9521153F4150F58B
:100D4000FC01EE27F170BC0166277270AC014427EC
:100D500054709C012227387094FF0EC080E1EF2B65
:100D600009F480E0672B09F08062452B09F080646C
:100D7000232B89F08068089581E0EF2B09F480E04F
:100D8000672B09F08260452B09F08460232B19F052
:100D90008860089580E00895CF93DF93EB010E946F
:100DA0009B06FE010995DF91CF910895CF93DF93C4
:100DB000EC01805E9109089720F068E37CE02097C1
:100DC00011F464EE79E0CE010E94CC068C2F0E94D3
:100DD000D208DF91CF910895CF93DF93EC010E9469
:100DE0006909CE01805E9109089720F06FE37CE0ED
:100DF000209711F46BEE79E0CE010E94CC06DF91D2
:100E0000CF9108950F931F93CF93DF938C01EB0144
:100E10000E94D606209741F4C8010E94EC06DF919B
:100E2000CF911F910F9108958FE99FE00197F1F7FE
:100E300000C000002197EECF70E060E0893391059B
:100E400011F460E570E00E940207089581E00895C2
:100E500081E008950E942807089508950E942D07B3
:100E60000895A5E0B0E0E7E3F7E00C94172B498381
:100E70005A833091C90289819A81311119C0662340
:100E800099F0222389F00E94B10D182F682F8981D3
:100E90009A810E948D0D69817A81812F0E949E1412
:100EA0002596E3E00C94332B0E949F0D182FF3CF6F
:100EB0000E94B10D69817A81F1CFFC01262F40811A
:100EC00051816281738184810E943107089581E09C
:100ED0000895CF93DF93EC0160E00E945D07BE01AF
:100EE0000E942E07DF91CF91089508950E945C0C17
:100EF0000E9475072FEF84E39CE0215080409040D2
:100F0000E1F700C0000008950E9476070E94842344
:100F100008950E9476070E94952308950F931F93CA
:100F2000CF93DF938C0161E00E945D07EC01B80173
:100F30000E942A07811106C080E0DF91CF911F91A6
:100F40000F910895B801CE010E949A1A8823A1F347
:100F5000B801CE010E943A21882371F3B801CE0175
:100F60000E94491C882341F3B801CE010E94AC20A5
:100F7000882311F3F8018281882369F0C330FCE7EC
:100F8000DF0781F160F4C130ECE7DE0769F1C0F4FE
:100F9000C115DC4791F0C8010E942607CECFCB35A2
:100FA000ECE7DE0739F1CC35FCE7DF0701F1CA35A4
:100FB000DC4789F70E94F811EECF0E948407BCCF6E
:100FC00090915203892F8E7F90FF8160809352030E
:100FD00080FF05C084E492E00E94DA05ADCF82E391
:100FE00092E0FACF0E9400120E948907A5CF0E94CA
:100FF000EE11D1CF0E94FC11CECF0E94B5220E94EB
:10100000490808950E944D080E94BA2208958295C9
:1010100090E09C01220F331F220F331F2C7C9595EB
:101020008795959587958373282B30E0C901880FA4
:10103000991F8A7A359527952575822B0895CF9328
:10104000DF93D92F0E940708C82F8D2F0E94070811
:101050009C2FDF91CF910895089581E00895089520
:10106000CF93DF93D82F0E942D08C82F882319F023
:101070008D2F0E942F088C2FDF91CF910895089516
:10108000CF93C82F0E942C088C2F0E943008CF913C
:10109000089580E00E94400808950E9488210E94DF
:1010A00040080895CF930E948821C82F8091C402E0
:1010B0008C1789F1C093C4020E9445236093C50236
:1010C0007093C6028093C7029093C8028091520326
:1010D00082FF1EC080FF1CC08CE592E00E94DA05F2
:1010E0008091520380FF14C01F92CF9387E592E056
:1010F0009F938F930E947306809152030F900F90DD
:101100000F900F9080FF04C085E592E00E94DA0501
:101110008C2F0E944008CF910895ABE0B0E0E3E946
:10112000F8E00C94182B4F83588769877A878B8750
:1011300061110E9426111E821D8285E0FE013796F4
:10114000DE01119601900D928A95E1F78C819D81C7
:10115000892B61F449815A816B817C818D819E81CB
:101160000E944B102B96E2E00C94342B89819A81DB
:1011700089238F3F79F3CE0101960E946707811181
:10118000E9CFF0CFFC01808191810E94E30D0895A9
:10119000662329F00E94FD170E94D01808950E942E
:1011A0005718FACFCF93C82F8823C9F08238C9F4D3
:1011B0000E94882181FD13C089E30E94DB100E94F8
:1011C00047112FEF87EE93E0215080409040E1F7E8
:1011D00000C0000089E30E94E3100E944711CF91F4
:1011E00008958338A1F40E94882180FDF8CF83E51B
:1011F0000E94DB100E9447112FEF81EE94E02150F6
:1012000080409040E1F700C0000083E5E4CF8438DF
:10121000A1F40E94882182FDE2CF87E40E94DB10C6
:101220000E9447112FEF81EE94E0215080409040C2
:10123000E1F700C0000087E4CECF8CEF8C0F813A3D
:10124000B8F48C2F0E9458208111C9CF6C2F809147
:101250000001909101010E944622882329F08C2FE1
:101260000E94E3100E9447118C2F0E94DB10B5CF23
:1012700080E28C0F883048F4C77081E001C0880F8D
:10128000CA95EAF70E940611A8CFEBE5EC0FE33010
:1012900040F4F0E0E75BFE4F808190E00E94EA219D
:1012A0009ECFE8E5EC0FEB3150F4F0E0EE0FFF1FBE
:1012B000ED5EFE4F808191810E940F2290CF83E3EB
:1012C0008C0F833108F08BCF61E08C2F0E94C8080F
:1012D00086CF882309F456C0823879F40E94882189
:1012E00081FF50C089E30E94DB100E94471189E30F
:1012F0000E94E3100E9447110895833859F40E9418
:10130000882180FF3FC083E50E94DB100E944711C7
:1013100083E5EECF843859F40E94882182FF32C0E1
:1013200087E40E94DB100E94471187E4E1CF9CEF25
:10133000980F913AE8F290E2980F983050F4877045
:1013400091E001C0990F8A95EAF7892F0E940C114C
:10135000D1CF9BE5980F933028F490E080E00E9475
:10136000EA21089598E5980F9B3128F490E080E0F9
:101370000E940F22089593E3980F933118F460E0D0
:101380000E94C80808951F93CF93DF93182FEB0195
:101390000E94D208209739F4812F0E946909DF91B9
:1013A000CF911F9108958FE99FE00197F1F700C059
:1013B00000002197EFCF70E060E0893311F460E521
:1013C00070E00E94C3090895882321F00E9406114D
:1013D0000E9447110895882321F00E940C110E9459
:1013E00047110895B0E0A0E0E8EFF9E00C94112B6C
:1013F0006C01D62FC72FFC011281058102950F7059
:101400000E94FC10E82E8823E9F0E12E1123D1F090
:101410008C2F807F803451F080E28D0F8830F8F07F
:10142000011104C08C2F807E8032C9F0809183032B
:1014300082FF15C082E00E94AA110E94FC1091E078
:10144000E82EE926BC2EB2949FE0B922FBE0FB1502
:10145000B8F1EB2DF0E0E355F44D0C94022BE12CA8
:10146000F1CF0C2F0F70C07F11F00295007F112378
:1014700099F0002359F080E28D0F883010F0D111DF
:1014800007C0802F0E9406110E9447118D2F63C054
:10149000802F0E941911F8CF8D2F0E946909002317
:1014A00079F080E28D0F883010F0D11104C0802FC8
:1014B0000E940C1103C0802F0E941F110E9447112F
:1014C0002B2D2850330B2430310520F40E94882125
:1014D0000E944008EE2089F00E94F81080FD0DC0A7
:1014E000F60112820E94F2100E94EB0CC6010E94CB
:1014F0000E0C0E94F2100E94FB0CCDB7DEB7E9E0A3
:101500000C942D2B2C2F2F70F22EC07FC03219F08F
:10151000F29480EFF822DD2381F0D13009F449C044
:10152000112309F451C0002309F448C0F601858154
:1015300080FFACCF8F70858341C08091830382FD93
:1015400015C0112359F0FF2029F08F2D0E9406119C
:101550000E94471180E00E94D208B2CF80E00E9432
:101560006909FF2009F4ACCF8F2DA2CF112381F0A0
:10157000011106C00E9429118F290E94E409A0CF01
:101580000130C1F70E9429118F290E94301198CF94
:10159000011106C00E943D118F2D0E94EB0990CFD2
:1015A000013009F48DCF8F2D0E94EB090E943D116F
:1015B00087CF112329F0063008F082CF8F2DDDCFA1
:1015C000053008F07DCFE8CF002331F3D93349F45B
:1015D000FFEF27EE33E0F15020403040E1F700C04C
:1015E00000008D2F0E9469096BCF8C2F8695869500
:1015F000837069F0813009F063CF8D2F9C2F937039
:10160000111102C080E090E00E940F2259CF8D2F6F
:101610009C2F9370111102C080E090E00E94EA219B
:101620004FCF612F8D2F0E94C8084ACF8C2F837017
:10163000A1F5111145CF4D2F429546954770440FA6
:10164000440F2D2F2F7030E0042E02C0220F331FC5
:101650000A94E2F790E080E0D4FF09C08FE090E0C8
:1016600002C0880F991F4A95E2F780959095C6951C
:10167000C695C370822B932BC23049F058F4C13009
:1016800019F00E94BB0C1CCF0E94B20C19CF0E9413
:10169000C40C16CF0E94AF0C13CF8695112311F006
:1016A0008C2F8170882309F40BCF4D2F42954695DE
:1016B0004770440F440F2D2F2F7030E0042E02C0CE
:1016C000220F331F0A94E2F790E080E0D4FF09C0B4
:1016D0008FE090E002C0880F991F4A95E2F780954D
:1016E0009095C695C695C370822B932BC23049F056
:1016F00058F4C13019F00E94260DE2CE0E941D0D53
:10170000DFCE0E942F0DDCCE0E94D30CD9CECF703D
:10171000112329F08C2F0E94EB0C8D2F2ECF8D2FB3
:101720000E94EB098C2F0E94FB0CCACED23F41F1E4
:1017300060F4D03FB9F0D13F81F0112309F446C0E5
:101740000111A4CE8C2F8F711FC0D33F01F1D43F64
:10175000A1F78091830382FD24C08C2F8F71112308
:1017600011F312C0112341F0053008F0A9CE8C2FDF
:101770008F710E940D0DA4CE063008F0A1CEF7CFD8
:101780008C2F8F711111CFCF0E94EB0C99CE1123AA
:1017900029F08C2F8F710E94DF0C92CE0E94DA0C00
:1017A0008FCE112349F0CF718C2F0E94EB0C63E098
:1017B0008C2F0E948C1184CE81E00E94AA110230ED
:1017C00008F47ECE82E00E94AA117ACE002359F05E
:1017D000D93309F006CF8FEF97EEE3E081509040C8
:1017E000E040E1F7FCCE8C2F8F719DCF0F931F93BC
:1017F000CF93DF93EC01688179818A810E94EE0D9D
:101800008C010E94380D0E94AE0CB801CE010E94DE
:10181000F209DF91CF911F910F910895CF93DF933C
:10182000EC018B819C81892B29F088819981892306
:101830008F3F51F4DF91CF910895CE010E94F60BB6
:10184000CE010E946907F6CFCE010E948E0781115A
:10185000F4CF0E94FC10882369F38A81882351F316
:101860008091830382FFE6CF82E00E94AA11E2CF3B
:10187000882321F00E9419110E944711089588239E
:1018800021F00E941F110E944711089590E080E00E
:101890000E94EA2190E080E00E940F220E9426111F
:1018A0000E9447110E946E190E94D01808950E944C
:1018B000EB100E94460C08950E9416110E94570CCE
:1018C000089592959F70963091F058F4925F9F70B2
:1018D000923058F4803F19F030F4883E30F481E0C3
:1018E00008959A5FF4CF843FD1F380E00895883E55
:1018F000B0F3813FD1F7F3CFFC0183819481892B31
:1019000029F08081918189238F3F11F480E008952F
:10191000808191810E94E30D0E94610C0895A5E0F1
:10192000B0E0E5E9FCE00C94182B2596E2E00C947D
:10193000342BA6E0B0E0EFE9FCE00C94182B2696DF
:10194000E2E00C94342B08950E94A30C08950E94A9
:10195000A40C9093F1028093F002089508950E94E0
:10196000A70C08952091F0023091F102822B932B65
:101970000E94A70C08952091F0023091F102822379
:1019800093230E94A70C08952091F0023091F10258
:10199000822793270E94A70C08950E94A30C089504
:1019A0000E94CD0C08950E94D00C9093EF0280937A
:1019B000EE02089590E080E00E94D30C089521E0AB
:1019C00030E0A90102C0440F551F8A95E2F7CA0111
:1019D0000E94D30C089521E030E002C0220F331F93
:1019E0008A95E2F78091EE029091EF02822B932B81
:1019F0000E94D30C089521E030E002C0220F331F73
:101A00008A95E2F7209530958091EE029091EF0251
:101A1000822393230E94D30C089521E030E002C07A
:101A2000220F331F8A95E2F78091EE029091EF0228
:101A3000822793270E94D30C08952091EE023091C3
:101A4000EF02822B932B0E94D30C08952091EE027B
:101A50003091EF02822393230E94D30C08952091AA
:101A6000EE023091EF02822793270E94D30C089553
:101A70000895262F277091E001C0990F2A95EAF763
:101A800023E0769567952A95E1F7660F771F660F35
:101A9000771FFA01E60FF71F50E040E0682F70E073
:101AA0008191DF0111979B01042E02C03695279585
:101AB0000A94E2F7217021952827292328272C93BF
:101AC0004F5F5F4F4430510559F70895A82FA77015
:101AD00023E0969587952A95E1F7880F991F880F3F
:101AE000991FFB01E80FF91F50E040E080E02191D1
:101AF00030E00A2E02C0369527950A94E2F721704D
:101B00003327042E01C0220F0A94EAF7822B4F5F7D
:101B10005F4F4430510559F70895262F953070F4E2
:101B20008D3060F4682F70E08DE0989F600D711D1E
:101B300011244AEC52E0822F0E94390D0895292F7A
:101B4000953068F48D3058F490E06AEC72E03DE036
:101B5000239F800D911D11240E94660D089580E041
:101B60000895B0E0A0E0E7EBFDE00C94112B7C01C0
:101B70000091EE021091EF028091F0029091F1023B
:101B8000082B192BCFE0D0E0CC24C394D12CBC2E51
:101B9000C6010C2E02C0880F991F0A94E2F7802319
:101BA0009123892B49F4219790F7B12C8B2DCDB738
:101BB000DEB7E9E00C942D2BB7018C2F0E94AA14FC
:101BC000019789F3F3CFCF93DF93EC010E94B10D1E
:101BD000BE010E94AA14DF91CF9108951F93CF9365
:101BE000DF93EB019091C902992339F0CB010E9458
:101BF000E30DDF91CF911F910895882369F0CB0108
:101C00000E94B10D182F682FCE010E948D0DBE01CC
:101C1000812F0E94AA14EDCFCB010E949F0D182F97
:101C2000F6CF1F93CF93DF93C091F20216E080911D
:101C3000F3028C1304C0DF91CF911F910895D0E07F
:101C40001C9FF0011D9FF00D1124EC50FD4F4081B1
:101C5000518162817381848195810E94990C2196C2
:101C6000C770E5CF4091240350912503609126036E
:101C70007091270380912803909129030E94990C69
:101C800008952091F2029091F30256E0291302C0C8
:101C900080E0089530E0529FF001539FF00D112431
:101CA000EC50FD4F7181761306C07081781303C02C
:101CB0007281741304C02F5F3F4F2770E7CF81E01C
:101CC00008951F93CF93DF9380912903807F09F0BC
:101CD0004BC080912603882309F446C08091F2020C
:101CE000C091F30240912403509125036091270392
:101CF00070912803D42FD52316E0C817A9F190E0DE
:101D000061157105A9F1DF3F99F1189FF001199F45
:101D1000F00D1124DF01AC50BD4F11962C9111979D
:101D2000251326C02C91241323C012962C911297B0
:101D300021111EC013962D913C91261B370B283C78
:101D40003105B0F4809129038F708061809329035D
:101D5000E750FD4F80818F708061808384E293E043
:101D60000E940E0C0E94110EDF91CF911F910895D9
:101D700001968770C2CFA1E1B0E0E1ECFEE00C94E7
:101D80000E2B8C0185E0F801DE011D9601900D926D
:101D90008A95E1F7F801F28084E2A82E83E0B82E5C
:101DA00040912703509128034115510509F45AC168
:101DB0009091240320912503892F82238F3F09F4DA
:101DC00051C1C080D18083809480E0902603B4010B
:101DD000641B750BEE2009F4F6C080912903382F9F
:101DE000307F683C710508F0AFC031117AC0EF2C2C
:101DF0002D1116C09C1114C0F11012C08F7080619B
:101E0000809329030E94320EC5010E940E0C80911E
:101E10002903F80185838E2D6196ECE00C942A2B22
:101E200081149104C9F18C2D8D218F3FA9F181E09E
:101E30008F2580FF05C04F2D6D2D8C2D0E94410EEA
:101E40008114910459F18C2D8D218F3F39F181E05E
:101E50008F25F82FF170BF2E80FF39C04F2D6D2DCB
:101E60008C2D0E94410EA82E811131C0CD86DE86B8
:101E70008D859E850E94E30D292F22952F70243099
:101E800078F49F702230A8F09923B9F0F801958179
:101E9000907F99F4EA2CBFCF80E0CBCF80E0D9CF00
:101EA0002A5F2F70223068F0C8010E940E0CAB2C04
:101EB000F1CF992311F0882369F3805E883050F3C5
:101EC000F3CF803F38F3815F833070F7E3CFFF209B
:101ED00009F4A1CF80912903816080932903E12C2B
:101EE0009ACF2D1105C09C1103C0FF2009F486C0B4
:101EF000C8010E947C0C882319F1FF2009F1809110
:101F00002903803270F02091240330912503388713
:101F10002F8319869B868A868C87CE0107960E941E
:101F20000E0C86E0F801A4E2B3E001900D928A95D0
:101F3000E1F70E94610E0E94320EEE24E3946BCF13
:101F4000C8010E940E0CF9CF311114C0782D998A66
:101F5000888AA6016F2D89890E948F0C84E293E004
:101F60000E940E0C86E0F50111928A95E9F70E9415
:101F7000320EB5CF2D110EC09C110CC0F1100AC04D
:101F80008583C8010E940E0C86E0F50111928A95A6
:101F9000E9F741CFC8010E947C0C882389F2FF2019
:101FA00079F280912903803208F4BBCF2091240379
:101FB000309125033A8329831B829D828C828E83F4
:101FC000CE010196ACCF683C710508F03DC0EF2C06
:101FD000FF2009F4B5CF2D1129C09C1127C0809195
:101FE000290380FD1AC0982F907FB9F08583903F18
:101FF00031F0982F907F905F8F70892B8583C80177
:102000000E940E0C86E0F801A4E2B3E001900D926C
:102010008A95E1F70E94320EFECE86E0F801A4E236
:10202000B3E001900D928A95E1F7F5CEC8010E94C8
:102030007C0C811176CF80912903816080932903E4
:10204000C8010E940E0CE7CE782D998A888AA601D5
:102050006F2D89890E948F0C86E0F50111928A9577
:10206000E9F7D8CFFF2009F46BCFC8010E947C0CA0
:10207000E82E882309F464CF86E0F801A4E2B3E0F7
:1020800001900D928A95E1F784E293E00E94C208E4
:102090000E94610EBFCFACE0B0E0E1E5F0E10C944E
:1020A000172B4F83588769877A878B879C87CE0148
:1020B00007960E94BB0E8823B1F08A859B85892BE9
:1020C00039F04F815885842F85238F3F09F06CC0EC
:1020D00016E08091F2029091F302891343C02C968E
:1020E000E3E00C94332B86E0FE013796DE01119677
:1020F00001900D928A95E1F78A859B85892B41F3A2
:102100008F81988589238F3F19F32091F30230E066
:10211000C9010196877099274091F2024817190664
:1021200071F40E945C0C1092F3021092F20286E0AD
:10213000E4E2F3E0DF011D928A95E9F7C9CF96E06A
:10214000929FD001939FB00D1124AC50BD4FFE0162
:10215000319601900D929A95E1F78093F3020E94D7
:10216000110EB6CF819FC00111248C509D4F0E944B
:10217000BB0E882309F4B3CFE091F2021E9FF00159
:102180001124EC50FD4F4081518162817381848123
:1021900095810E94990C8091F20290E001968770DF
:1021A00099278093F20295CF69857A858B859C85E6
:1021B0000E94990C8DCF682F8091000190910101B0
:1021C0000E947C220895682F809100019091010166
:1021D0000E947F22089580910001909101010E9448
:1021E000822208958091320385958595859508957D
:1021F000809132038770089590913203977081E047
:1022000009F480E0089580913D03089590913D0385
:10221000892B80933D030895809590913D039823E9
:1022200090933D03089580933D03089510923D03DC
:10223000089590913C03892B80933C0308958095E9
:1022400090913C03982390933C03089510923C0393
:10225000089580913303089508950E942C110895E4
:102260009091830392FF08C090913303981721F057
:10227000809333030E942D110895809133038823A6
:1022800029F01092330380E00E942D110895CF931E
:10229000DF93E0910001F091010180913D03808383
:1022A000E0910001F0910101808190913C03892B24
:1022B000808390913303992381F0E0910001F091A4
:1022C00001018081892B808380910001909101011F
:1022D0000E94342281110E943D11C0910001D091D1
:1022E000010148E050E06AE273E0CE010E94532B06
:1022F000892B59F088E0FE01AAE2B3E001900D922B
:102300008A95E1F7CE010E949821DF91CF9108953F
:1023100008950E94881108959091830392FF11C03F
:1023200098E0899F90011124622B609332030E94F0
:10233000EB0C809132038595859585950E948911D6
:1023400008950E94EB0C08951092320380E00E94E1
:1023500089110895909132038095892380933203E7
:10236000282F277091F4282F082E000C330B92177A
:10237000130659F09091830392FF07C085958595C8
:1023800085950E94FB0C0E94A4110895CF93C82F3D
:102390008091830382FB992790F99C17E9F0C0FB99
:1023A00082F98093830380918203909183030E943A
:1023B000211282E00E94AA118091520380FF0CC07A
:1023C0001F92CF9387E692E09F938F930E947306AC
:1023D0000F900F900F900F90CF91089580918303ED
:1023E00082FB882780F991E089270E94C611089511
:1023F00081E00E94C611089580E00E94C6110895F0
:102400006FEF7FEF90E080E00E94952B089590E0C1
:1024100080E00E94712B21E0873E9E4F09F020E072
:10242000822F089582E090E00E94692B089583E056
:1024300090E00E94692B089584E090E00E94712B47
:102440000895BC0184E090E00E94952B0895AB01B3
:10245000BC018FE090E00E94892B0895AB01BC0184
:1024600083E190E00E94892B089560E070E0CB0149
:102470000E942E12089560E070E0CB010E942712A6
:102480000E943512089567EE7EEF90E080E00E9492
:10249000952B60E082E090E00E94772B60E083E083
:1024A00090E00E94772B1092F1021092F00260E00F
:1024B00074E184E090E00E94952B60E086E090E07B
:1024C0000E94772B6FEF87E090E00E94772B40E02F
:1024D00050E0BA0188E090E00E94892B60E08DE036
:1024E00090E00E94772B40E050E0BA0188E190E054
:1024F0000E94892B60E087E190E00E94772B40E00A
:1025000050E0BA018CE190E00E94892B70E060E01D
:1025100080E290E00E94952B40E050E0BA0188E113
:1025200090E00E94892B0E943B1208950E94431262
:102530000895682F8EE090E00E94772B0895A5E023
:10254000B0E0E5EAF2E10C94162B0E9439238C01ED
:1025500080913E0390913F0380179107A1F08FEF88
:1025600089838A831B820E9439238160782F9D830F
:102570008C8349815A816B818D810E948D081093D3
:102580003F0300933E032596E4E00C94322B0E9417
:10259000452360934E0370934F03809350039093B1
:1025A000510360934A0370934B0380934C039093C1
:1025B0004D030895089508950E94DB12089508952B
:1025C0000E94DF12089581E008958AE395E20E9457
:1025D0007E210E94DA120E94DC1208950E94E3120A
:1025E00008950E94EE120895089508950E94F4122D
:1025F0000E94F51208950E9495150E943F080E94BE
:10260000EA1A08950E9430230E94C1160E94FB120C
:102610000E94E0120895A5E0B0E0E1E1F3E10C943E
:102620000D2B0E94E31281110AC00E949F120E948A
:1026300090190E9452082596EDE00C94292B0E94D7
:10264000D71620E4822E23E0922E640110E0F601DA
:10265000E190F1906F01812F0E94BB151F5F153033
:1026600009F449C0E816F90691F38091520381FDFF
:102670000E94C4150E94F112782E10E0812F0E9452
:10268000BB157C01F401A190B1904F018A159B0507
:1026900061F100E0CC24C394D12CAE24BF24C50149
:1026A0008C219D21892BC1F07720B1F009831A83F9
:1026B00021E0C7018C219D21892B09F420E02B8387
:1026C0000E9439238160782F9D838C8349815A81B0
:1026D0006B818D810E948D080F5FCC0CDD1C0D304D
:1026E000F1F6F4013297F182E0821F5F153031F686
:1026F0000E94C7129CCFE816F90609F0B6CF95CF15
:102700001F93CF93DF930E94AF14EC01C11580E5B6
:10271000D807F0F5C11580E4D80708F09CC0C03E8A
:10272000D10520F5CD3CD10508F082C0C83AD105CD
:1027300078F4C53AD10508F073C0C130D10519F15C
:10274000209709F1C430D105F0F4D0E0C0E01BC0FF
:10275000C33CD105D0F7C85AD0E0CC0FDD1FC45B15
:10276000DE4F0990D881C02DD4640DC0C11580E220
:10277000D80708F0D1C0C11581E0D80708F05AC0C9
:10278000C83ED10510F7CE01DF91CF911F9108957A
:10279000C03682E5D80718F5C03482E5D80708F0BE
:1027A0006BC0C03282E5D80708F05FC0C11582E572
:1027B000D80708F497C02C2F2695269580E2289FED
:1027C000900111248C2F8370C1E0D0E002C0CC0FA7
:1027D000DD1F8A95E2F7C22BD32BDD68D4CFC03A38
:1027E00082E5D80760F4C03882E5D80708F459C0FC
:1027F000CF71D0E0DC2FCC27C46FD06AC4CFC03CEF
:1028000082E5D80708F462C0C03E82E5D80708F028
:102810009CCFDC2FCC27CC27DF71C06FD06AB3CF21
:10282000C55AD0E0CE57DE4FC881D0E0D064ABCFE0
:10283000D065A9CF8D2F0E945115182FCE01992751
:102840000E94AF14C12FD0E0DC2FCC27CC27DF7142
:10285000C82BD92B98CFCE0199270E94AF14CC2733
:10286000DF70C82BD92BD06A8ECFCF71D0E0DC2F90
:10287000CC27C16FD06A87CF2C2F2695269527703D
:1028800080E2289F900111248C2F8370C1E0D0E05A
:1028900002C0CC0FDD1F8A95E2F7C22BD32BDC6878
:1028A00072CF2C2F26952695277080E2289F9001C5
:1028B00011248C2F8370C1E0D0E002C0CC0FDD1F4B
:1028C0008A95E2F7C22BD32BDA685DCF8C2F8F71FC
:1028D0000E945115C82FD0E0DC2FCC27CC27DF7108
:1028E000D06251CF8C2F8F710E94511555E0D69533
:1028F000C7955A95E1F7CF70D0E0DC2FCC27282F71
:1029000030E084FF05C044E0220F331F4A95E1F711
:10291000C22BD32BD06937CF8D2F8F710E945115C9
:10292000182FCE0199270E94AF14C12FD0E0DC2FC1
:10293000CC27CC27DF71C82BD92BD2CF462F7530AF
:1029400030F46D3020F4672F0E949806089590E0CF
:1029500080E008950E949E140E948013089582389A
:102960009105B9F1B0F48133910509F47DC048F4C3
:102970008932910509F46DC08A32910509F47BC052
:1029800008958533910509F45FC08933910509F1F4
:102990000895833E9105D9F138F4803E910529F1DF
:1029A000823E910579F10895863E9105D9F1873EE1
:1029B000910509F43EC0843E910541F520918303C1
:1029C00021FF24C08091820384FD19C087EE90E02E
:1029D000089520918203237009F05AC02091830347
:1029E00023FF14C089E290E008952091820320FD26
:1029F00038C03091830330FF09C024FF43C090E00A
:102A000080E008952091820322FDF7CF0895209160
:102A1000820322FD3AC03091830330FD39C024FF88
:102A2000F5CFEDCF2091820323FFF0CF24FDE7CF38
:102A3000CDCF2091820323FD2EC03091830331FF3F
:102A4000EECF84EE90E008952091820325FFDECF43
:102A5000C9CF2091820325FD21C02091830323FF4C
:102A6000D5CF89E390E0D2CF2091820326FFCECF4D
:102A70008AE290E008952091820326FFC7CF81E388
:102A800090E0089583EE90E0089582EE90E008953E
:102A900080EE90E0089586EE90E0089585E390E062
:102AA00008959091820392FF06C0282F2871283044
:102AB000F9F4877F846093FF06C0282F287128319E
:102AC000F1F4877E84612091830320FF06C0382FB4
:102AD00038713830D9F4877F816021FF06C0282FF4
:102AE00028712831D1F4877E816194FD877E089515
:102AF000282F24712430F9F68B7F8860DCCF282FB3
:102B00002471243101F78B7E8861DDCF382F31713C
:102B1000313019F78E7F8860E0CF282F2171213165
:102B200021F78E7E8861E1CF08950E9407128111FE
:102B300002C00E9496120E941212809352030E94B9
:102B40001C1290938303809382030E9494150E9429
:102B5000171290E00E94AF0C8091EE029091EF026C
:102B60000E94D00C089508950E94B3150895089509
:102B70000E94B7150895E82FF0E0EE0FFF1FE2570F
:102B8000FC4F808191810895B0E0A0E0EAECF5E18E
:102B90000C94122B8CE892E00E94DA058EE8E82E65
:102BA00083E0F82ED0E0C0E097E8C92E92E0D92E5D
:102BB0000EE712E0DF93CF93DF92CF920E9473066D
:102BC00084E892E00E94DA05F701819191917F01FA
:102BD0000E941F089F938F931F930F930E94730669
:102BE0008CE792E00E94DA0521968DB79EB7089691
:102BF0000FB6F8949EBF0FBE8DBFC530D105D1F67C
:102C0000CDB7DEB7E8E00C942E2B80EA8A95F1F779
:102C1000089500C008950E9405160895F894E82FBD
:102C2000E295EF70F0E031A1282F2F7081E090E065
:102C300001C0880F2A95EAF7982F9095932391A3C6
:102C400092A1892B82A3789408950F931F93CF9319
:102C5000DF93C5E8D1E089918F3F11F00E940E16F5
:102C600081E0C239D807B9F7C2E9D1E007E911E03C
:102C700089918F3F11F00E940E160C171D07C1F7A6
:102C8000DF91CF911F910F9108958F929F92BF92E4
:102C9000CF92DF92EF92FF920F931F93CF93DF9328
:102CA000D82EE92EF62E8A01C62FD0E0CB57DE4F64
:102CB00028812F3F09F453C0F894E22FE295EF707A
:102CC000F0E031A12F7081E090E001C0880F2A95DB
:102CD000EAF7932F982B91A392A18095892382A341
:102CE00078940E94091682E9882E81E0982EED2DB5
:102CF000FE2DBF01665F7F4FE12C6801C094D09428
:102D0000D401BD904D0181919191AF014250510983
:102D1000BFEFBB1681F12B2D22952F7030E0D9012A
:102D200090962C9130E0BB2DBF7002C03595279551
:102D3000BA95E2F720FD1FC0802B912BDA018D930D
:102D40009C93EE24E3946E177F07D1F688818F3F22
:102D500011F00E940E166E2D8F2D0E940B16DF9122
:102D6000CF911F910F91FF90EF90DF90CF90BF9088
:102D70009F908F9008958C219D21DA018D939C93D3
:102D8000E2CF0E9425168AE0EEE8F3E0DF01982FFB
:102D90001D929A95E9F7E4E8F3E0DF011D928A9528
:102DA000E9F785E00E942B170E94B4150895CF9291
:102DB000DF92FF920F931F93CF93DF93CDB7DEB7D0
:102DC0002A970FB6F894DEBF0FBECDBF8E010F5FFE
:102DD0001F4F8AE0F80111928A95E9F7F12CCC2473
:102DE000C394D12CA6016F2DC8010E944516F394FF
:102DF000CC0CDD1CFDE0FF12F5CF4AE050E0B8013D
:102E000084E893E00E94532B21E0009709F420E02E
:102E1000892B41F08AE0F801A4E8B3E001900D921B
:102E20008A95E1F745E06EE873E084E893E00E945C
:102E30002C17182F0E94B815812F2A960FB6F894D8
:102E4000DEBF0FBECDBFDF91CF911F910F91FF90DD
:102E5000DF90CF9008950895CF92DF92EF92FF9286
:102E60001F93CF93DF936C017B01C42F222349F082
:102E700081E0809355030E943923909354038093FB
:102E800053031091550311110AC010E0812FDF91F7
:102E9000CF911F91FF90EF90DF90CF900895809198
:102EA0005303909154030E945123059770F3D0E08F
:102EB000CC0FDD1FAE01B601C7010E94532B892B39
:102EC00041F0AE01B601C7010E94602B109255037C
:102ED000DDCF10E0FBCF0E94B6250E9402130E94B6
:102EE000C32508950E94C8250E940B130E94E62561
:102EF00008950E94D2220E949C250E94E5120E9401
:102F00006B170E9472170E94F612FBCF80915C0330
:102F100080FF0DC06091070170E0660F771F603879
:102F2000710570F56115710569F1862F089581FFAE
:102F300007C06091070184E0689FB0011124EFCFC2
:102F40006091070182FD0AC080915B038823A9F08C
:102F50002091060160910701821710F088E0ECCF04
:102F6000869FC001112433E0880F991F3A95E1F73D
:102F7000622F70E00E94EE2AD2CF68E070E0D5CFD9
:102F80008FE7089581E0089580915C0380FF0CC075
:102F90006091030170E0759567957595679561156A
:102FA000710549F1862F089581FF06C060910301E4
:102FB00070E075956795F3CF6091030182FD0BC0BA
:102FC00090915A039923A1F060910201809103012D
:102FD000961738F0682F70E06038710500F38FE7BE
:102FE0000895899FC001112470E00E94EE2AF4CF59
:102FF00061E070E0D7CF81E008958D3C31F40E940C
:10300000861781958093600308958E3C19F40E9481
:103010008617F8CF8F3C31F40E94861781958093F4
:103020005F030895803D19F40E948617F8CF893D0B
:1030300029F40E94C4178093610308958A3D21F406
:103040000E94C4178195F7CF8B3D31F40E94C417BD
:1030500081958093620308958C3D19F40E94C417F2
:10306000F8CF9FE2980F983070F4815D990B21E0C2
:1030700030E001C0220F8A95EAF780915E03822B2F
:1030800080935E0308958D3D31F480915C038160EF
:1030900080935C0308958E3D21F480915C038260EF
:1030A000F7CF8F3DB9F780915C038460F1CF4091F9
:1030B0005F038D3C59F48091600387FF0DC010922F
:1030C000600341110BC010925B0308C08E3C81F479
:1030D0008091600318169CF3442381F08091610372
:1030E00090916203892B09F05AC010925A030895F7
:1030F0008F3C49F447FFF0CF10925F03809160034B
:103100008111ECCFE0CF803D19F41416ACF3E4CF7D
:1031100090916103893D29F41916F4F61092610328
:10312000DBCF8A3D19F497FFD7CFF8CF9091620398
:103130008B3D29F497FFD0CF10926203CDCF8C3D09
:1031400019F41916CCF3C8CF9FE2980F983090F479
:10315000815D990B21E030E0B90102C0660F771F55
:103160008A95E2F7CB01809590915E038923809345
:103170005E03B2CF8D3D31F480915C038E7F8093EE
:103180005C03AACF8E3D21F480915C038D7FF7CF45
:103190008F3D09F0A1CF80915C038B7FF0CF089524
:1031A0008091520383FF7EC08AEC92E00E94DA0590
:1031B00080915E031F928F9385EC92E09F938F9393
:1031C0000E94730683EC92E00E94DA0580915F030F
:1031D000282F082E000C330B3F938F9380EC92E046
:1031E0009F938F930E9473068EEB92E00E94DA0504
:1031F00080916003282F082E000C330B3F938F9390
:103200008BEB92E09F938F930E94730689EB92E081
:103210000E94DA0580916103282F082E000C330BE1
:103220003F938F9386EB92E09F938F930E94730658
:1032300084EB92E00E94DA0580916203282F082E29
:10324000000C330B3F938F9381EB92E09F938F930E
:103250000E9473068EEA92E00E94DA0580915B0379
:103260001F928F938BEA92E09F938F930E94730635
:1032700089EA92E00E94DA0580915C031F928F93A5
:1032800086EA92E09F938F930E94730683EA92E00E
:103290000E94DA058DB79EB74C960FB6F8949EBF84
:1032A0000FBE8DBF0E9439239C0190915F038091D6
:1032B0006003982B21F03093590320935803909189
:1032C000610380916203982B21F030935703209380
:1032D00056038DE593E00E94DC21089586E0EDE53C
:1032E000F3E0DF011D928A95E9F710925B031092DB
:1032F0005A0310925C030895FC01828181110EC073
:10330000838181110BC08481811108C091E0858186
:10331000811101C090E0892F8170089581E0FCCF78
:10332000A6E0B0E0E6E9F9E10C94172B86E0EDE5C4
:10333000F3E0DE01119601900D928A95E1F710926B
:103340005F031092600310926103109262038B81FD
:103350009C81892B89F080915803909159030E9498
:103360005123AC0190915B039923C9F1809108012D
:103370008417150608F440C08D819E81892B91F039
:1033800080915603909157030E945123AC01909174
:103390005A03992309F471C080910401841715061A
:1033A00008F479C0BE016F5F7F4F8DE593E00E9406
:1033B0008922811105C08DE593E00E947C1981115D
:1033C0000E94D01886E0FE013196ADE5B3E0019091
:1033D0000D928A95E1F72696E3E00C94332B209129
:1033E00009018AE0289F900111242417350720F64F
:1033F0009F5F90935B0302C09F3FD1F71B81112316
:1034000059F00E9486179FEF11160CF491E0899FE6
:10341000802D112480935F031C81112359F00E9499
:1034200086179FEF11160CF491E0899F802D1124CF
:103430008093600330915F03332309F49DCF209183
:103440006003222309F498CF45EB3403C001112413
:10345000992359F090935F0345EB240390011124C5
:10346000332339F03093600387CF81E080935F038B
:10347000F3CF81E0809360037FCF209105018AE044
:10348000289F900111242417350708F08BCF9F5FE8
:1034900090935A0302C09F3FD1F71D81112359F029
:1034A0000E94C4179FEF11160CF491E0899F802DA4
:1034B0001124809361031E81112359F00E94C417C7
:1034C0009FEF11160CF491E0899F802D11248093B9
:1034D000620330916103332309F464CF20916203C6
:1034E000222309F45FCF45EB3403C0011124992353
:1034F00059F09093610345EB240390011124332389
:1035000039F0309362034ECF81E080936103F3CFB3
:1035100081E08093620346CFFB012281222341F0A8
:1035200097FF06C09F77BC0190E080E00E94011CDD
:1035300081E008950F931F93CF93DF93EC018B01EC
:10354000FB0182818823B1F00E9403118272FE0187
:10355000E053FC47E830F10568F4E754F44D0C946F
:10356000022B811104C081E003C08111FCCF8FEFD9
:103570000E940F1BB801CE010E948C1ADF91CF91DF
:103580001F910F91089580E00E94171BF3CF81E0F7
:10359000FBCF82E0F9CF83E0F7CF84E0F5CF85E081
:1035A000F3CF90919903923071F48A3050F490E007
:1035B00009966AE070E00E94EE2A875A0E94DB09B1
:1035C00008958650FBCF0E94821D089508950E94A1
:1035D000E61A08958CE090E00E94692B482F50E095
:1035E00070E060E04093990350939A0360939B03CB
:1035F00070939C030E94E71A8091520380FF0EC0D3
:10360000809199031F928F938CE093E09F938F9307
:103610000E9473060F900F900F900F9008950895D9
:10362000609199038CE090E00E94772B0895CF93EE
:10363000C82F809399030E94101B8C2F0E94E71AB9
:103640008091520380FF0EC0809199031F928F9347
:103650008DEE92E09F938F930E9473060F900F90D0
:103660000F900F90CF9108950E9495218093980319
:1036700090919903913029F481FF03C089E30E945E
:10368000DB090E94031180939D030E9416110E9482
:10369000261180919903823021F158F48823C1F0DA
:1036A0008130D1F08FE39CE90197F1F700C0000071
:1036B0000895843051F18530A9F78BE191E00E94A3
:1036C0001C0785E290E00E941C0788E290E006C09B
:1036D00082EE0E94D208E6CF88E193E00E941C07A8
:1036E000E1CF8091980380FD03C083E50E94DB0950
:1036F00082EE0E94D2088FE39CE90197F1F700C0A7
:10370000000087E50E94DB09CDCF86EE0E94DB0931
:1037100088E1F8CF80919903823011F148F4882331
:1037200081F0813091F080919D030E9413110895E2
:103730008430F9F08530B9F788E290E00E941C07E8
:10374000F2CF82EE0E946909EECF8CE20E94DB0983
:103750008091980381FFE7CF89E30E94DB09E3CFE3
:1037600082EE0E9469098091980380FDDCCF83E599
:10377000F4CF88E2F2CF8F929F92AF92BF92EF92F6
:10378000FF920F931F93CF93DF934B015C01D09176
:1037900099038CE1E82EF12C07E010E021E0D5013F
:1037A000C4010E2C04C0B695A795979587950A94E9
:1037B000D2F7C82FCF70222339F0D43051F4CA3059
:1037C00040F080E00E94D11A8C2F0E94D11A20E094
:1037D00005C0C111F9CF04301105B4F3015011092E
:1037E00084E0E81AF1080F3F1007C9F6DF91CF9186
:1037F0001F910F91FF90EF90BF90AF909F908F908F
:103800000895CF92DF92EF92FF926B017C01C11479
:10381000D10481E1E806F104A0F5C114D10481E0EE
:10382000E806F10420F080919903823051F10E9462
:10383000341BC114D10481E0E806F10438F1809111
:103840009903811123C081E0E81AF108C701B6018C
:103850002AE096958795779567952A95D1F77852BE
:103860008F4F9F4F0E94BB1B83E0D822EE24FF2482
:10387000C701B60174528F4F9F4F0E94BB1B0E941D
:103880008A1BFF90EF90DF90CF900895C701B6019B
:10389000F4CFCF93DF93EC01FB018281882309F4FD
:1038A000D2C09E0130572332310508F0B2C00E94C9
:1038B0001C129093830380938203FE01E150F04732
:1038C000E232F10520F4EF53F44D0C94022B809179
:1038D000820381608093820393C080918303886018
:1038E000809383038DC0809182038260F3CF8091A7
:1038F00082038460EFCF809182038860EBCF809158
:1039000083038160EDCF809183038260E9CF809152
:1039100082038061DFCF809182038062DBCF809160
:1039200082038064D7CF0E945C0C80918203806800
:10393000D1CF809182038C60CDCF8091830383604F
:10394000CFCF809182038E7FC5CF80918303877F05
:10395000C7CF809182038D7FBDCF809182038B7F03
:10396000B9CF80918203877FB5CF809183038E7F0B
:10397000B7CF809183038D7FB3CF809182038F7EF9
:10398000A9CF809182038F7DA5CF809182038F7B09
:10399000A1CF0E945C0C809182038F779BCF809196
:1039A0008203837F97CF809183038C7F99CF80910F
:1039B000820382FB992790F921E0922790FB82F9FC
:1039C00090FB83F987CF80918303982F9095917016
:1039D0008E7F892B90FB81F983CF90918203892F71
:1039E0008F7B96FF806476CF0E945C0C909182035F
:1039F000892F97FB87F980586DCF81E00E9499123B
:103A000080918203909183030E9421120E945C0C9A
:103A100080E0DF91CF91089580E0F0CF9091820314
:103A2000892F8F7E94FF806155CF90918203892FDB
:103A30008E7F90FF81604ECF90918303892F877F87
:103A400093FF88604DCF81E0E4CFB0E0A0E0EBE2EF
:103A5000FDE10C94132BE82FF0E0E45DFC4FD490D3
:103A6000282F26952695269530E0F901E453FC4F42
:103A70000491877010E0082E02C0159507950A94EE
:103A8000E2F701701127F901E454FC4FE490F12CA6
:103A9000082E02C0F594E7940A94E2F791E0E92237
:103AA000FF24F901E455FC4FC491D0E002C0D59544
:103AB000C7958A95E2F7C170DD270115110519F048
:103AC00081EE0E94D208E114F10419F086EE0E9402
:103AD000D2088D2D0E94DB09E114F10419F086EE65
:103AE0000E9469090115110519F081EE0E9469090A
:103AF000CD2B19F08CE20E94DB09CDB7DEB7E7E0F1
:103B00000C942F2B982F9F709A50963020F0805D48
:103B10000E94251D0895895AFBCF809102011F92B2
:103B20008F93809103011F928F93809106011F92C2
:103B30008F93809107011F928F93809108011F92AC
:103B40008F93809109011F928F938CED93E09F9347
:103B50008F930E9473068DB79EB70E960FB6F8949A
:103B60009EBF0FBE8DBF0895883228F58E3108F0B4
:103B700072C08B3041F130F4873009F4CFC08BE351
:103B800095E0E0C0833109F45FC08431C1F78DE571
:103B900095E00E94DA0580916703882309F4FEC04E
:103BA00010926703109266031092650310926403EB
:103BB0001092630320C08F3409F4C7C0D8F589324E
:103BC00031F38833E1F680E695E00E94DA050E9441
:103BD0008D1D1F9281E08F931F9288E08F9389E55E
:103BE00094E09F938F930E9473060F900F900F9015
:103BF0000F900F900F9020916703222309F4C9C002
:103C00008091630390916403009711F487E991E038
:103C10009F938F931F922F9389E295E09F938F93A9
:103C20000E9473060F900F900F900F900F900F90BF
:103C300081E00895813509F49CC008F49CC0823568
:103C400009F09DCF81E082C08FE495E00E94DA0503
:103C50000E948D1DD0CF8D5180936703833009F46E
:103C600042C058F48130C1F08230A1F11092670354
:103C70008CE495E00E94DA051BC0853009F445C04C
:103C8000D8F1863099F782E091E0909366038093B3
:103C900065038FED91E008C089E091E090936603A1
:103CA000809365038BE991E09093640380936303B1
:103CB00080916703882309F49ECF1F928F9388E435
:103CC00095E09F938F930E9473060F900F900F9033
:103CD0000F9091CF88E091E0909366038093650305
:103CE00084EA91E0E1CF87E091E0909366038093CE
:103CF000650380EB91E0D8CF86E091E09093660376
:103D0000809365038DEB91E0CFCF83E091E09093BA
:103D10006603809365038CEC91E0C6CF81E08093CD
:103D2000090184E1809308018AE0809307018EE114
:103D30008093060188E08093030188E2809302016A
:103D40008EE395E00E94DA0556CF8AE0E0916503A4
:103D5000F09166033097D1F02081082E000C990B6A
:103D6000820F911D8F3F910541F03CF08FEF8083D2
:103D700007C08FEFEBCF86EFE9CF97FFF8CF108228
:103D800080811F928F9385E395E09BCF82E395E03E
:103D9000D9CF85E295E00E94DA054ACF80E0089508
:103DA000CF93C82F1F928F9386E795E09F938F93B1
:103DB0000E94730681E090E002C0880F991FCA95A7
:103DC000E2F70E94AF0C0E945C0C0F900F900F90D6
:103DD0000F90CF910895EF92FF920F931F93CF937F
:103DE000DF938B3109F410C108F0B0C08B3009F4B7
:103DF000CCC008F082C0863009F4DAC048F48530BF
:103E000009F4B2C08BE199E00E94DA0580E0E0C0DD
:103E1000873009F4E2C08830A9F70E9417121F9278
:103E20008F938EEF98E09F938F930E9473060E946A
:103E3000121283FB992790F91F929F9382FB992777
:103E400090F91F929F9381FB992790F91F929F935E
:103E5000982F91701F929F931F928F9385EB98E0FC
:103E60009F938F930E9473060E941C1293FB22273C
:103E700020F91F922F9387FB222720F91F922F935F
:103E800086FB222720F91F922F9385FB222720F9FA
:103E90001F922F9384FB222720F91F922F9383FBDD
:103EA000222720F91F922F9382FB222720F91F92AD
:103EB0002F9391FB222720F91F922F93292F2170F6
:103EC0001F922F9381FB222720F91F922F93282FD7
:103ED00021701F922F939F938F9386EB97E09F9370
:103EE0008F930E9473068DB79EB78A960FB6F8948B
:103EF0009EBF0FBE8DBF81E06BC0803109F49CC0B6
:103F000080F48E3009F07ECF90915203892F8B7F01
:103F100092FF84608093520382FF8BC086E499E015
:103F20007FC0863109F498C0893109F06BCF84EFE6
:103F300091E09F938F9386EE95E09F938F930E94DD
:103F400073060F900F900F900F90D5CF8A3249F1E2
:103F500090F4873211F128F48E3108F453CF8D514B
:103F60001DC0893209F04ECF89E899E00E94DA0538
:103F70000E948407C0CF833468F48A3308F091C06C
:103F8000853359F0883309F03DCF80E196E00E94F7
:103F9000DA05B1CF833409F035CF80E00E94D01E1E
:103FA000AACF89EA99E00E94DA050E949612A3CF6F
:103FB00080915203807F8093520389EE95E00E94A6
:103FC000DA0585EA99E00E94DA0581E080936803CA
:103FD000CDB7DEB7E6E00C94302B90915203892FD9
:103FE0008E7F90FF81608093520380FF03C08DE736
:103FF00099E0CDCF80E799E00E94DA0580915203E5
:10400000817F8093520377CF90915203892F8D7FC8
:1040100091FF82608093520381FF08C083E699E09C
:104020000E94DA05809152038160EBCF85E599E02B
:10403000AECF86E399E0ABCF90915203892F877F73
:1040400093FF88608093520383FF03C08AE299E064
:10405000E7CF8DE199E09BCF0E944523162F072FD4
:10406000F82EE92ED0918103C09112010E9488217F
:10407000EF92FF920F931F931F92DF931F92CF93A4
:104080001F928F938BE795E09F938F930E94730607
:104090008DB79EB70C960FB6F8949EBF0FBE8DBF1E
:1040A0002ACF89537BCF80E008950E945320089542
:1040B000CF93C82F809168038130C1F0882339F0F5
:1040C000823009F444C01092680380E00DC00E9461
:1040D00003118232D1F78C2F0E94532081111BC013
:1040E0008C2F0E94EB1E8170CF9108950E940311C6
:1040F000823289F38C2F0E94552081111BC0C4315C
:10410000D9F060F4CB3071F0C031D1F080E795E0A8
:104110000E94DA0513C081E090E0E5CFC93261F07A
:10412000C833A1F789EE95E00E94DA0582E795E0B1
:104130000E94DA0581E0D7CF1092680380E0D3CFE8
:1041400082E08093680388E30E94B41DF3CF8C2F34
:104150000E94B41D81E0C8CFCF93DF93EB0186317D
:104160009C4711F50E9403119A81992399F08A7A4C
:1041700091E009F490E090936903811109C089E20C
:104180000E94DB100E94471180E0DF91CF910895DB
:1041900085E3F6CF80916903811104C089E20E9412
:1041A000E310F0CF85E3FBCF81E0EFCF0F931F93B8
:1041B000CF93DF93C42FD22FFC0182818823C9F0D3
:1041C00040936C030E94392390936B0380936A039E
:1041D00080E28C0F883040F4C77081E001C0880F06
:1041E000CA95EAF70E94E409DF91CF911F910F91E0
:1041F000089510916C03141332C080916A0390915A
:104200006B030E945123883C910548F5C0E2CD0F15
:104210001D17B9F080E2810F883040F4177081E0FB
:1042200001C0880F1A95EAF70E94EB09C83048F4DC
:1042300081E09D2F977001C0880F9A95EAF70E9440
:10424000E409802F0E94DB09C83070F6D77081E046
:1042500001C0880FDA95EAF70E94EB09C5CF80E22A
:104260008C0F883008F6C77081E001C0880FCA95AE
:10427000EAF7F2CF0F93DB0188519C478730910515
:10428000A0F5FC01ED51F44D0C94022B06E221EE59
:1042900041EE6AE17CE7CD010E94D62080E00F91DB
:1042A000089507E225EE45EE6BE17CE7F4CF06E2E8
:1042B00021EE40EE68E17CE7EECF07E225EE44EE2A
:1042C00069E17CE7E8CF06E221EE42EE6CE17CE7B3
:1042D000E2CF07E225EE46EE6DE17CE7DCCF08E2B7
:1042E00021E045EE6EE17CE7D6CF12968C918823D3
:1042F00019F010926C03D3CF81E0D1CF9093C30219
:104300008093C2020895909372038093710308957D
:10431000E0917103F0917203309729F00190F081E0
:10432000E02D0995089580E008950E948821089560
:10433000EF92FF920F931F93CF93DF938C01E09145
:104340007103F0917203309791F10280F381E02DB7
:1043500009958091520382FF2AC080FF04C082EC3D
:1043600099E00E94DA05D0E0C0E08CEBE82E89E00D
:10437000F82E8091520380FF0EC0F801EC0FFD1F54
:1043800080811F928F93FF92EF920E9473060F908D
:104390000F900F900F902196C830D10551F7809162
:1043A000520380FF04C08AEB99E00E94DA05CDB782
:1043B000DEB7E6E00C94302BE0917103F0917203CC
:1043C000309739F022E0DC012C930480F581E02D58
:1043D00009950895A3E0B0E0E0EFF1E20C94182B0A
:1043E00020916F033091700328173907A1F0909343
:1043F000700380936F03E0917103F0917203309723
:1044000051F023E029839B838A830680F781E02D86
:10441000CE01019609952396E2E00C94342BA3E09B
:10442000B0E0E5E1F2E20C94182B20916D0330919D
:104430006E0328173907A1F090936E0380936D03E4
:10444000E0917103F0917203309751F024E02983D9
:104450009B838A830680F781E02DCE010196099522
:104460002396E2E00C94342B9C012E5F3F4FAC016D
:10447000485F5F4F80E02417350709F40895F9017C
:1044800091919F019923B9F38F5FF5CF662349F08E
:10449000FC01329608962191261729F0E817F907B2
:1044A000D1F780E0089581E008959C01FC013296E7
:1044B0009FEF80E04191461751F09F3F19F4411161
:1044C00001C0982F8F5F8630A9F79F3F09F40895A8
:1044D000290F311D97FD3A95F90162830895FC017A
:1044E000329608962191261303C0DF0111971C9282
:1044F000E817F907B9F708950E94552208950E9418
:104500006F220895029626E0FC0111922A95E9F7A0
:10451000089546E050E00E94532B21E0892B09F4D6
:1045200020E0822F089508950E949322089581111A
:1045300006C081E0809373030E949422089582E074
:10454000F9CF83E0809373030E94942208950E9420
:104550009722089581E0809373030E949422089526
:104560000E94AA220895089508950E94B4220895F1
:10457000089508950E94B3220895CF930E94B8220F
:104580000E94D7160E94B922C0E08C2F0E94BB1552
:10459000892B31F4CF5FC530C1F780E0CF9108950A
:1045A00081E0FCCF85B7806885BF85B7806885BF0F
:1045B00008951F921FB61F9211248F939F93AF935C
:1045C000BF9380917403811113C080919E039091D9
:1045D0009F03A091A003B091A1034196A11DB11D1D
:1045E00080939E0390939F03A093A003B093A10395
:1045F000BF91AF919F918F911F901FBE1F901895F3
:104600008091A603843031F10E94FD07109274035B
:1046100088E190E020E40FB6F894A89580936000BC
:104620000FBE2093600083B7817F846083BF83B710
:10463000816083BF7894889583B78E7F83BF0FB6E0
:10464000F894A89580916000886180936000109232
:1046500060000FBE08950E945C0C0E94020808953D
:1046600082E084BD93E095BD9AEF97BD80936E0084
:1046700008952FB7F89480919E0390919F03A09185
:10468000A003B091A1032FBF08952FB7F8946091B4
:104690009E0370919F038091A0039091A1032FBF6F
:1046A00008959C014FB7F89480919E0390919F03C9
:1046B000A091A003B091A1034FBF821B930B08955B
:1046C00078941F921FB61F9211248F939F93AF93DC
:1046D000BF9380919E0390919F03A091A003B091FE
:1046E000A1030196A11DB11D80939E0390939F038A
:1046F000A093A003B093A103BF91AF919F918F911D
:104700001F901FBE1F90189587E797E790930108A9
:104710008093000888E19AE00FB6F894A8958093FA
:1047200060000FBE90936000FFCF88E19AE00FB663
:10473000F894A895809360000FBE90936000FFCF1F
:104740008091800308959B01BA019091A603943053
:10475000E9F48F708093E9009FEF8091E800915019
:1047600085FD06C085ED8A95F1F700009111F5CF22
:104770008091E80085FF0AC050E040E0C9010E9436
:104780005C268091E8008E778093E800089543E0EE
:1047900050E0BC0182E00E94A323089546E050E06F
:1047A000BC0182E00E94A3230895CF93DF93EC0124
:1047B00048E050E0BC0181E00E94A32388E0FE01B4
:1047C000A8E7B3E001900D928A95E1F7DF91CF91D0
:1047D000089588EE99E00E94DA058091A503811181
:1047E00009C00E94EC270E9449288091E200846061
:1047F0008093E200089584EE99E00E94DA05109219
:10480000A503089580EE99E00E94DA050E94AA228D
:1048100008958CED99E00E94DA056091A20381E091
:10482000611101C080E00E94A122089588ED99E005
:104830000E94DA059091A60381E0943009F080E0AF
:104840006091A2030E94A7220895209176032F5F12
:10485000822F62E30E94E22A992319F020937603C3
:10486000089510927603809177038823F1F0809168
:10487000A6038430C1F49091E9009F702091EC0070
:10488000822F817020FD80E8892B93E09093E900CE
:104890009091EB0090FF04C09091EE0097FD08C04E
:1048A0008F708093E9001092770308951092F100C1
:1048B0009091E80095FDFACF9091E80090FFF0CF3D
:1048C0009091E8009E779093E800EACF42E061EC97
:1048D00081E00E94682742E261EC82E00E94682742
:1048E00042E261EC83E00E9468279091A60381E098
:1048F000943009F080E06091A2030E94972208950D
:104900008091A803833009F461C030F48130D1F183
:10491000823009F49EC008958A3009F48AC08B3031
:1049200009F46FC0893009F050C08091A70381322B
:1049300009F04BC08091AB039091AC03029708F053
:1049400044C08091E800877F8093E8008091E80070
:1049500082FF37C09091F3008091F200029731F40A
:104960008091F100813011F0863021F48091F100C6
:10497000809380038091E8008B778093E8000E9409
:104980009C2723C08091A703813AF9F48091E80025
:10499000877F8093E8008091AB039091AC03892BD3
:1049A00061F468E088E793E070E00E94AB268091B4
:1049B000E8008B778093E800089560E090E080E065
:1049C000F3CF8091A6038111C1CF08958091A703F1
:1049D000813AD9F78091AB039091AC03892BA9F769
:1049E0008091E800877F8093E8008091E80080FF55
:1049F000FCCF809112018093F1008091E8008E77C6
:104A0000BCCF8091A703813201F78091AB039091D5
:104A1000AC03892BD1F68091E800877F8093E80072
:104A20000E949C278091A903809312010E945C0C34
:104A300008958091A703813241F68091E800877F35
:104A40008093E8000E949C278091AA0380938103B1
:104A500008958091A703813A09F0B7CF8091E800CB
:104A6000877F8093E8008091E80080FFFCCF8091F1
:104A70008103C1CF9FB7F894109277039FBF9091A5
:104A8000A603943009F048C02091E9002F703091BE
:104A9000EC00932F917030FD90E8922B23E020934F
:104AA000E9002091EB0020FF34C02091EE0027FFA9
:104AB00030C020917503222321F02091E80025FFCA
:104AC00028C01092750326E03091E80035FF14C02D
:104AD0008093F1008091E80085FD27C08091E80077
:104AE00080FFFCCF8091E8008E778093E8009F7074
:104AF0009093E90080E008953091A603343049F4A2
:104B00003091EB0035FD05C0215041F481E08093E8
:104B100075039F709093E9008FEF0895EFE9FFE030
:104B20003197F1F700C00000CFCF8FB7F89421E0A4
:104B3000209377038FBFDBCF84B7877F84BF0FB607
:104B4000F894A8958091600088618093600010922D
:104B500060000FBE80E890E00FB6F894809361008B
:104B6000909361000FBE0E94B02208950E94EC272E
:104B70000E944928E2EEF0E080818460808378948E
:104B80000E94C72A08958AE091E00E948321089537
:104B90008091A603853051F484ED99E00E94DA05F6
:104BA0008091A603853019F00E942B2308950E945E
:104BB00000238091A403882399F30E94BD228823B7
:104BC00079F30E9446260E945C0CEACF08959A0170
:104BD0004091AD035091AE030E94EF250895492FF7
:104BE00055274330510521F168F44130510509F44E
:104BF00043C04230510509F444C090E080E050E0E9
:104C000040E026C04132510551F142325105A9F729
:104C10006330710590F7FB01EE0FFF1FEB54FD4F62
:104C2000408151816E547D4FFB01808190E010C026
:104C300099278130910581F0009729F00297E9F6D4
:104C4000ECEEF9E002C0E0E1FAE0849190E0AF011F
:104C5000F901518340830895E0E0FAE0F6CF633034
:104C6000710558F6660F771FFB01E554FD4F408133
:104C7000518189E090E0ECCF82E190E04FE65AE08C
:104C8000E7CF8BE590E044E15AE0E2CF80E189BDD7
:104C900082E189BD09B400FEFDCF8091D8008F7DEF
:104CA0008093D8008091E00082608093E000809142
:104CB000E00081FDFCCF0895AF92BF92CF92DF92CA
:104CC000FF920F931F93CF93DF936C01EB018A0147
:104CD0000E94BB27F82E811123C00115110539F060
:104CE000F80180819181C81BD90BC80ED91EB12C47
:104CF000A12C2097A9F08091E80085FD22C0809129
:104D0000E8008E778093E80001151105A1F0F80105
:104D100080819181A80EB91EB182A08285E0F82E13
:104D20008F2DDF91CF911F910F91FF90DF90CF904A
:104D3000BF90AF9008950E94BB278823D1F2F82E30
:104D4000EFCFF60181916F018093F1002197FFEF82
:104D5000AF1ABF0ACECFFC018091AD039091AE0394
:104D600086179707A0F06115710529F49091E80066
:104D70009E779093E80090E06115710551F49111D0
:104D800008C08091E80082FF34C080E00895BC0133
:104D9000F2CF8091A6038823C1F18530C1F18091C3
:104DA000E80083FD30C08091E80082FDEACF809169
:104DB000E80080FFE1CF8091F3002091F200382FCE
:104DC0006115710519F02830310558F091E028304F
:104DD000310509F090E02091E8002E772093E8005B
:104DE000CBCF81918093F100615071092F5F3F4FCC
:104DF000E7CF8091A603882341F0853041F0809170
:104E0000E80083FFBECF81E0089582E0089583E04B
:104E10000895FC018091AD039091AE03861797072A
:104E2000A0F06115710529F48091E8008E778093D8
:104E3000E80090E06115710551F4911108C080916E
:104E4000E80082FF35C080E00895BC01F2CF809178
:104E5000A6038823C9F18530C9F18091E80083FD5C
:104E600031C08091E80082FDEACF8091E80080FFA8
:104E7000E1CF8091F3002091F200382F6115710588
:104E800019F02830310558F091E02830310509F04B
:104E900090E08091E8008E778093E800CBCF8491FA
:104EA0008093F1003196615071092F5F3F4FE6CF3B
:104EB0008091A603882341F0853041F08091E8007D
:104EC00083FFBDCF81E0089582E0089583E00895D7
:104ED000982F973028F08F708093E90081E0089533
:104EE0009093E900242F762F50E0981731F07091BD
:104EF000EC002091ED005091F00021FD02C09F5F79
:104F0000E8CF3091EB003E7F3093EB003091ED0025
:104F10003D7F3093ED003091EB0031603093EB003A
:104F20007093EC002093ED005093F0002091EE0080
:104F300027FDE5CF80E008958091A70387FF13C088
:104F40008091E80082FF06C08091E8008B77809313
:104F5000E80004C08091A6038111F2CF08958091EA
:104F6000A6038823D9F38091E80080FFF8CF8091D1
:104F7000E8008E77ECCF2091E4003091E50095E6D3
:104F8000A9012091EC00822F817020FF06C0809142
:104F9000E80080FF06C080E008952091E80022FD2F
:104FA0001AC08091A603882389F0853089F080910A
:104FB000EB0085FD0FC02091E4003091E500421721
:104FC0005307F9F29150E1F684E0089582E00895E4
:104FD00083E0089581E008950E945B280E94632881
:104FE000E0EEF0E0808181608083E8EDF0E0808198
:104FF0008F77808319BCA7EDB0E08C918E7F8C9366
:1050000080818F7E80831092A50308950F931F9354
:10501000CF93DF930E945B280E946328C8EDD0E005
:1050200088818F77888388818068888388818F7D55
:10503000888319BC1092A6031092A2031092A403B5
:105040001092A30300EE10E0F80180818B7F808333
:1050500088818160888342E060E080E00E94682768
:10506000E1EEF0E080818E7F8083E2EEF0E08081EF
:1050700081608083808188608083F80180818E7F59
:105080008083888180618883DF91CF911F910F9108
:105090000895E8EDF0E080818F7E8083E7EDF0E019
:1050A00080818160808384E082BF81E08093A5035A
:1050B0000E9406280895E8EDF0E080818E7F8083CD
:1050C0001092E20008951092DA001092E100089523
:1050D0001F920F920FB60F9211242F933F934F936D
:1050E0005F936F937F938F939F93AF93BF93EF9350
:1050F000FF938091E10082FF0BC08091E20082FF6C
:1051000007C08091E1008B7F8093E1000E942524FD
:105110008091DA0080FF19C08091D80080FF15C00F
:105120008091DA008E7F8093DA008091D90080FF31
:1051300096C080E189BD82E189BD09B400FEFDCF42
:1051400081E08093A6030E94E9238091E10080FF23
:1051500019C08091E20080FF15C08091E2008E7F2F
:105160008093E2008091E20080618093E200809170
:10517000D80080628093D80019BC85E08093A60394
:105180000E9409248091E10084FF2BC08091E200FD
:1051900084FF27C080E189BD82E189BD89B5982F50
:1051A000917080FFFBCF8091D8008F7D8093D800D5
:1051B0008091E1008F7E8093E1008091E2008F7EFC
:1051C0008093E2008091E20081608093E200809110
:1051D000A203882309F449C084E08093A6030E94B7
:1051E00016248091E10083FF29C08091E20083FFB3
:1051F00025C08091E100877F8093E10082E0809369
:10520000A6031092A2038091E1008E7F8093E100BB
:105210008091E2008E7F8093E2008091E2008061C5
:105220008093E20042E060E080E00E946827809185
:10523000F00088608093F0000E940224FF91EF91BB
:10524000BF91AF919F918F917F916F915F914F919E
:105250003F912F910F900FBE0F901F90189519BC82
:105260001092A6030E94FB2370CF8091E30087FD7C
:1052700093E09093A603B3CF1F920F920FB60F92B5
:1052800011242F933F934F935F936F937F938F934B
:105290009F93AF93BF93CF93DF93EF93FF93D091FF
:1052A000E900DF708091EC00C82FC17080FDC0E87C
:1052B0001092E9008091F000877F8093F00078944D
:1052C0000E9480291092E9008091F000886080930C
:1052D000F000CD2BCF70C093E900FF91EF91DF91EB
:1052E000CF91BF91AF919F918F917F916F915F917E
:1052F0004F913F912F910F900FBE0F901F901895D7
:10530000AAE2B0E0E6E8F9E20C94172B87EA93E012
:105310002091F100FC012193CF01F3E08F3A9F0728
:10532000B9F70E9480248091E80083FF1EC180911C
:10533000A7039091A8039A3008F017C1E92FF0E075
:10534000E651F44D0C94022B803899F0823809F024
:105350000CC18091AB038F70873008F006C1809339
:10536000E9008091EB0085FB882780F91092E90025
:1053700006C08091A3039091A40391118260909143
:10538000E800977F9093E8008093F1001092F1007D
:105390008091E8008E77E5C0882309F4D3C082307D
:1053A00009F0E3C08091A9038111D6C08091AB03BD
:1053B0008F702FEF280F263008F0D7C08093E900B8
:1053C0002091EB0020FFC8C0933031F48091EB00B6
:1053D00080628093EB00C0C09091EB00906190934D
:1053E000EB0021E030E001C0220F8A95EAF720931C
:1053F000EA001092EA008091EB008860EACF811108
:10540000B4C01091A9031F778091E3008078812BAD
:105410008093E3008091E800877F8093E8000E94FA
:105420009C278091E80080FFFCCF8091E30080689A
:105430008093E30082E0111183E08093A60395C07E
:105440008058823008F091C08091A9039091AA03FE
:105450008C3D23E09207A1F583E08A838AE2898369
:105460004FB7F894DE01139620E03EE051E2E32FBF
:10547000F0E050935700E49120FF03C0E295EF70F5
:105480003F5FEF708E2F90E0EA30C0F0C7968D93AB
:105490009D932F5F243159F74FBF8091E800877F9C
:1054A0008093E8006AE270E0CE0101960E94AB268C
:1054B0008091E8008B778093E80057C0C096E7CFD3
:1054C0006091AB037091AC03AE014F5F5F4F0E94E0
:1054D000E725BC01892B09F448C09091E800977F2B
:1054E0009093E80089819A810E940927E1CF803852
:1054F000E1F58091E800877F8093E8008091A20326
:105500008093F10045CF811130C09091A903923072
:1055100060F58091E800877F8093E8009093A20374
:105520000E949C278091A203882311F084E005C08B
:105530008091E30087FDFACF81E08093A6030E946B
:10554000662413C08091A903813079F481E09330FF
:1055500009F080E08093A4031092E9008091E800B4
:10556000877F8093E8000E949C278091E80083FF5A
:105570000AC08091E800877F8093E8008091EB006B
:1055800080628093EB00AA96E3E00C94332BCF93D8
:105590008091A6038823A1F0C091E900CF7090917B
:1055A000EC00892F817090FD80E8C82B1092E900F3
:1055B0008091E80083FD0E948029CF70C093E900AC
:1055C000CF910895991B79E004C0991F961708F0B0
:1055D000961B881F7A95C9F78095089597FB072E2B
:1055E00016F4009407D077FD09D00E943F2B07FCEA
:1055F00005D03EF4909581959F4F089570956195E3
:105600007F4F0895EE0FFF1F0590F491E02D099450
:105610002F923F924F925F926F927F928F929F92C2
:10562000AF92BF92CF92DF92EF92FF920F931F93B0
:10563000CF93DF93CDB7DEB7CA1BDB0B0FB6F89461
:10564000DEBF0FBECDBF09942A88398848885F84A1
:105650006E847D848C849B84AA84B984C884DF8012
:10566000EE80FD800C811B81AA81B981CE0FD11DF6
:105670000FB6F894DEBF0FBECDBFED010895AA1B93
:10568000BB1B51E107C0AA1FBB1FA617B70710F02D
:10569000A61BB70B881F991F5A95A9F7809590955F
:1056A000BC01CD010895FB01DC0104C08D91019086
:1056B000801921F441505040C8F7881B990B089578
:1056C000FB01DC0102C001900D9241505040D8F71F
:1056D0000895F999FECF92BD81BDF89A992780B5BA
:1056E0000895A8E1B0E042E050E00C949D2B262FF5
:1056F000F999FECF92BD81BDF89A019700B40216C8
:1057000039F01FBA20BD0FB6F894FA9AF99A0FBE75
:1057100008950396272F0E94782B0E94772B252F20
:105720000E94782B242F0C94782B0196272F0E940F
:10573000782B0C94772BDC01CB01FC01F999FECF7F
:1057400006C0F2BDE1BDF89A319600B40D92415009
:105750005040B8F70895F894FFCF310A310A820A11
:10576000820AF50A110B600A600A160B870B960B6A
:10577000960BB11AB51AC31AC71AC91ACB1ACD1A81
:10578000CF1AA11C151DA91C731C771CAD1C7B1CFA
:10579000B11CBD1C871C0E1D8B1CC11C8F1CC51C85
:1057A000ED1C931CC91CF41C991CCF1CD71C7F1C1E
:1057B000B51C831CB91C9D1CD31CE31CFD1C0C1DBB
:1057C0006D1CA51C1C1D57215D2146215121632103
:1057D00069216F21A429CC29B52ACC29B52AFF2912
:0857E000202AB52A772A832A4A
:1057E8003403280850011E0A1401A023D523CE2310
:1057F800C72301E200E900EA00B500B600B700CD12
:10580800008301CC008A0192019401210223022421
:10581800022502260227022A02B300B4006F007094
:10582800009F01CB019F02A002818283E200E90070
:10583800EA00B500B600B700CD008301CC008A01AC
:105848009201940121022302240225022602270242
:105858002A02B300B4006F0070009F01CB019F02C1
:10586800A002818283F4F5F6F7313332363534C637
:10587800976692939190943F3F3F006D6B5F64658C
:105888006C6179006D6B5F696E74657276616C002E
:105898006D6B5F6D61785F7370656564006D6B5FDC
:1058A80074696D655F746F5F6D6178006D6B5F77AC
:1058B8006865656C5F6D61785F7370656564006DC0
:1058C8006B5F776865656C5F74696D655F746F5F42
:1058D8006D6178000A092D2056657273696F6E2014
:1058E8002D0A5649443A20307846454544282250E6
:1058F800726F6665742229205049443A2030783600
:105908003036322822417472657573363222292066
:105918005645523A203078303030310A4255494C99
:10592800443A2020284D61722031352032303233FC
:10593800290A4F5054494F4E533A204C554641205E
:105948004D4F5553454B45592045585452414B45A9
:105958005920434F4E534F4C4520434F4D4D414ED8
:105968004420343039360A4743433A20382E332E00
:1059780030204156522D4C4942433A20322E302E87
:1059880030204156525F415243483A206176723581
:105998000A00407B221E0BA30A810A260A3F0A58E6
:0259A8000A00F3
:00000001FF
